{
  "_format": "hh-sol-artifact-1",
  "contractName": "Domains",
  "sourceName": "contracts/Domains.sol",
  "abi": [
    {
      "inputs": [
        {
          "internalType": "string",
          "name": "_tld",
          "type": "string"
        }
      ],
      "stateMutability": "payable",
      "type": "constructor"
    },
    {
      "inputs": [],
      "name": "AlreadyRegistered",
      "type": "error"
    },
    {
      "inputs": [
        {
          "internalType": "string",
          "name": "name",
          "type": "string"
        }
      ],
      "name": "InvalidName",
      "type": "error"
    },
    {
      "inputs": [],
      "name": "Unauthorized",
      "type": "error"
    },
    {
      "anonymous": false,
      "inputs": [
        {
          "indexed": true,
          "internalType": "address",
          "name": "owner",
          "type": "address"
        },
        {
          "indexed": true,
          "internalType": "address",
          "name": "approved",
          "type": "address"
        },
        {
          "indexed": true,
          "internalType": "uint256",
          "name": "tokenId",
          "type": "uint256"
        }
      ],
      "name": "Approval",
      "type": "event"
    },
    {
      "anonymous": false,
      "inputs": [
        {
          "indexed": true,
          "internalType": "address",
          "name": "owner",
          "type": "address"
        },
        {
          "indexed": true,
          "internalType": "address",
          "name": "operator",
          "type": "address"
        },
        {
          "indexed": false,
          "internalType": "bool",
          "name": "approved",
          "type": "bool"
        }
      ],
      "name": "ApprovalForAll",
      "type": "event"
    },
    {
      "anonymous": false,
      "inputs": [
        {
          "indexed": true,
          "internalType": "address",
          "name": "from",
          "type": "address"
        },
        {
          "indexed": true,
          "internalType": "address",
          "name": "to",
          "type": "address"
        },
        {
          "indexed": true,
          "internalType": "uint256",
          "name": "tokenId",
          "type": "uint256"
        }
      ],
      "name": "Transfer",
      "type": "event"
    },
    {
      "inputs": [
        {
          "internalType": "address",
          "name": "to",
          "type": "address"
        },
        {
          "internalType": "uint256",
          "name": "tokenId",
          "type": "uint256"
        }
      ],
      "name": "approve",
      "outputs": [],
      "stateMutability": "nonpayable",
      "type": "function"
    },
    {
      "inputs": [
        {
          "internalType": "address",
          "name": "owner",
          "type": "address"
        }
      ],
      "name": "balanceOf",
      "outputs": [
        {
          "internalType": "uint256",
          "name": "",
          "type": "uint256"
        }
      ],
      "stateMutability": "view",
      "type": "function"
    },
    {
      "inputs": [
        {
          "internalType": "string",
          "name": "",
          "type": "string"
        }
      ],
      "name": "domains",
      "outputs": [
        {
          "internalType": "address",
          "name": "",
          "type": "address"
        }
      ],
      "stateMutability": "view",
      "type": "function"
    },
    {
      "inputs": [
        {
          "internalType": "string",
          "name": "name",
          "type": "string"
        }
      ],
      "name": "getAddress",
      "outputs": [
        {
          "internalType": "address",
          "name": "",
          "type": "address"
        }
      ],
      "stateMutability": "view",
      "type": "function"
    },
    {
      "inputs": [],
      "name": "getAllNames",
      "outputs": [
        {
          "internalType": "string[]",
          "name": "",
          "type": "string[]"
        }
      ],
      "stateMutability": "view",
      "type": "function"
    },
    {
      "inputs": [
        {
          "internalType": "uint256",
          "name": "tokenId",
          "type": "uint256"
        }
      ],
      "name": "getApproved",
      "outputs": [
        {
          "internalType": "address",
          "name": "",
          "type": "address"
        }
      ],
      "stateMutability": "view",
      "type": "function"
    },
    {
      "inputs": [
        {
          "internalType": "string",
          "name": "name",
          "type": "string"
        }
      ],
      "name": "getRecord",
      "outputs": [
        {
          "internalType": "string",
          "name": "",
          "type": "string"
        }
      ],
      "stateMutability": "view",
      "type": "function"
    },
    {
      "inputs": [
        {
          "internalType": "address",
          "name": "owner",
          "type": "address"
        },
        {
          "internalType": "address",
          "name": "operator",
          "type": "address"
        }
      ],
      "name": "isApprovedForAll",
      "outputs": [
        {
          "internalType": "bool",
          "name": "",
          "type": "bool"
        }
      ],
      "stateMutability": "view",
      "type": "function"
    },
    {
      "inputs": [],
      "name": "isOwner",
      "outputs": [
        {
          "internalType": "bool",
          "name": "",
          "type": "bool"
        }
      ],
      "stateMutability": "view",
      "type": "function"
    },
    {
      "inputs": [],
      "name": "name",
      "outputs": [
        {
          "internalType": "string",
          "name": "",
          "type": "string"
        }
      ],
      "stateMutability": "view",
      "type": "function"
    },
    {
      "inputs": [
        {
          "internalType": "uint256",
          "name": "",
          "type": "uint256"
        }
      ],
      "name": "names",
      "outputs": [
        {
          "internalType": "string",
          "name": "",
          "type": "string"
        }
      ],
      "stateMutability": "view",
      "type": "function"
    },
    {
      "inputs": [],
      "name": "owner",
      "outputs": [
        {
          "internalType": "address payable",
          "name": "",
          "type": "address"
        }
      ],
      "stateMutability": "view",
      "type": "function"
    },
    {
      "inputs": [
        {
          "internalType": "uint256",
          "name": "tokenId",
          "type": "uint256"
        }
      ],
      "name": "ownerOf",
      "outputs": [
        {
          "internalType": "address",
          "name": "",
          "type": "address"
        }
      ],
      "stateMutability": "view",
      "type": "function"
    },
    {
      "inputs": [
        {
          "internalType": "string",
          "name": "name",
          "type": "string"
        }
      ],
      "name": "price",
      "outputs": [
        {
          "internalType": "uint256",
          "name": "",
          "type": "uint256"
        }
      ],
      "stateMutability": "pure",
      "type": "function"
    },
    {
      "inputs": [
        {
          "internalType": "string",
          "name": "",
          "type": "string"
        }
      ],
      "name": "records",
      "outputs": [
        {
          "internalType": "string",
          "name": "",
          "type": "string"
        }
      ],
      "stateMutability": "view",
      "type": "function"
    },
    {
      "inputs": [
        {
          "internalType": "string",
          "name": "name",
          "type": "string"
        }
      ],
      "name": "register",
      "outputs": [],
      "stateMutability": "payable",
      "type": "function"
    },
    {
      "inputs": [
        {
          "internalType": "address",
          "name": "from",
          "type": "address"
        },
        {
          "internalType": "address",
          "name": "to",
          "type": "address"
        },
        {
          "internalType": "uint256",
          "name": "tokenId",
          "type": "uint256"
        }
      ],
      "name": "safeTransferFrom",
      "outputs": [],
      "stateMutability": "nonpayable",
      "type": "function"
    },
    {
      "inputs": [
        {
          "internalType": "address",
          "name": "from",
          "type": "address"
        },
        {
          "internalType": "address",
          "name": "to",
          "type": "address"
        },
        {
          "internalType": "uint256",
          "name": "tokenId",
          "type": "uint256"
        },
        {
          "internalType": "bytes",
          "name": "_data",
          "type": "bytes"
        }
      ],
      "name": "safeTransferFrom",
      "outputs": [],
      "stateMutability": "nonpayable",
      "type": "function"
    },
    {
      "inputs": [
        {
          "internalType": "address",
          "name": "operator",
          "type": "address"
        },
        {
          "internalType": "bool",
          "name": "approved",
          "type": "bool"
        }
      ],
      "name": "setApprovalForAll",
      "outputs": [],
      "stateMutability": "nonpayable",
      "type": "function"
    },
    {
      "inputs": [
        {
          "internalType": "string",
          "name": "name",
          "type": "string"
        },
        {
          "internalType": "string",
          "name": "record",
          "type": "string"
        }
      ],
      "name": "setRecord",
      "outputs": [],
      "stateMutability": "nonpayable",
      "type": "function"
    },
    {
      "inputs": [
        {
          "internalType": "bytes4",
          "name": "interfaceId",
          "type": "bytes4"
        }
      ],
      "name": "supportsInterface",
      "outputs": [
        {
          "internalType": "bool",
          "name": "",
          "type": "bool"
        }
      ],
      "stateMutability": "view",
      "type": "function"
    },
    {
      "inputs": [],
      "name": "symbol",
      "outputs": [
        {
          "internalType": "string",
          "name": "",
          "type": "string"
        }
      ],
      "stateMutability": "view",
      "type": "function"
    },
    {
      "inputs": [],
      "name": "tld",
      "outputs": [
        {
          "internalType": "string",
          "name": "",
          "type": "string"
        }
      ],
      "stateMutability": "view",
      "type": "function"
    },
    {
      "inputs": [
        {
          "internalType": "uint256",
          "name": "tokenId",
          "type": "uint256"
        }
      ],
      "name": "tokenURI",
      "outputs": [
        {
          "internalType": "string",
          "name": "",
          "type": "string"
        }
      ],
      "stateMutability": "view",
      "type": "function"
    },
    {
      "inputs": [
        {
          "internalType": "address",
          "name": "from",
          "type": "address"
        },
        {
          "internalType": "address",
          "name": "to",
          "type": "address"
        },
        {
          "internalType": "uint256",
          "name": "tokenId",
          "type": "uint256"
        }
      ],
      "name": "transferFrom",
      "outputs": [],
      "stateMutability": "nonpayable",
      "type": "function"
    },
    {
      "inputs": [
        {
          "internalType": "string",
          "name": "name",
          "type": "string"
        }
      ],
      "name": "valid",
      "outputs": [
        {
          "internalType": "bool",
          "name": "",
          "type": "bool"
        }
      ],
      "stateMutability": "pure",
      "type": "function"
    },
    {
      "inputs": [],
      "name": "withdraw",
      "outputs": [],
      "stateMutability": "nonpayable",
      "type": "function"
    }
  ],
  "bytecode": "0x6080604052604051806108a0016040528061086b8152602001620054cb61086b91396009908051906020019062000038929190620002c8565b506040518060400160405280600d81526020017f3c2f746578743e3c2f7376673e00000000000000000000000000000000000000815250600a908051906020019062000086929190620002c8565b5060405162005d3638038062005d368339818101604052810190620000ac919062000515565b6040518060400160405280601281526020017f466f726365204e616d65205365727669636500000000000000000000000000008152506040518060400160405280600381526020017f4e4e530000000000000000000000000000000000000000000000000000000000815250816000908051906020019062000130929190620002c8565b50806001908051906020019062000149929190620002c8565b50505033600e60006101000a81548173ffffffffffffffffffffffffffffffffffffffff021916908373ffffffffffffffffffffffffffffffffffffffff1602179055508060089080519060200190620001a5929190620002c8565b50620001f26040518060400160405280601881526020017f2573206e616d652073657276696365206465706c6f796564000000000000000081525082620001f960201b62001c9e1760201c565b5062000663565b6200029b828260405160240162000212929190620005c3565b6040516020818303038152906040527f4b5c4277000000000000000000000000000000000000000000000000000000007bffffffffffffffffffffffffffffffffffffffffffffffffffffffff19166020820180517bffffffffffffffffffffffffffffffffffffffffffffffffffffffff83818316178352505050506200029f60201b60201c565b5050565b60008151905060006a636f6e736f6c652e6c6f679050602083016000808483855afa5050505050565b828054620002d6906200062d565b90600052602060002090601f016020900481019282620002fa576000855562000346565b82601f106200031557805160ff191683800117855562000346565b8280016001018555821562000346579182015b828111156200034557825182559160200191906001019062000328565b5b50905062000355919062000359565b5090565b5b80821115620003745760008160009055506001016200035a565b5090565b6000604051905090565b600080fd5b600080fd5b600080fd5b600080fd5b6000601f19601f8301169050919050565b7f4e487b7100000000000000000000000000000000000000000000000000000000600052604160045260246000fd5b620003e18262000396565b810181811067ffffffffffffffff82111715620004035762000402620003a7565b5b80604052505050565b60006200041862000378565b9050620004268282620003d6565b919050565b600067ffffffffffffffff821115620004495762000448620003a7565b5b620004548262000396565b9050602081019050919050565b60005b838110156200048157808201518184015260208101905062000464565b8381111562000491576000848401525b50505050565b6000620004ae620004a8846200042b565b6200040c565b905082815260208101848484011115620004cd57620004cc62000391565b5b620004da84828562000461565b509392505050565b600082601f830112620004fa57620004f96200038c565b5b81516200050c84826020860162000497565b91505092915050565b6000602082840312156200052e576200052d62000382565b5b600082015167ffffffffffffffff8111156200054f576200054e62000387565b5b6200055d84828501620004e2565b91505092915050565b600081519050919050565b600082825260208201905092915050565b60006200058f8262000566565b6200059b818562000571565b9350620005ad81856020860162000461565b620005b88162000396565b840191505092915050565b60006040820190508181036000830152620005df818562000582565b90508181036020830152620005f5818462000582565b90509392505050565b7f4e487b7100000000000000000000000000000000000000000000000000000000600052602260045260246000fd5b600060028204905060018216806200064657607f821691505b602082108114156200065d576200065c620005fe565b5b50919050565b614e5880620006736000396000f3fe60806040526004361061019c5760003560e01c806370a08231116100ec578063bf40fac11161008a578063e985e9c511610064578063e985e9c514610624578063f2c298be14610661578063fb825e5f1461067d578063fe2c6198146106a85761019c565b8063bf40fac114610581578063c1880a98146105be578063c87b56dd146105e75761019c565b806395d89b41116100c657806395d89b41146104c75780639791c097146104f2578063a22cb4651461052f578063b88d4fde146105585761019c565b806370a08231146104345780638da5cb5b146104715780638f32d59b1461049c5761019c565b8063264492351161015957806342842e0e1161013357806342842e0e146103545780634622ab031461037d578063541e771d146103ba5780636352211e146103f75761019c565b806326449235146102d55780632d551432146103125780633ccfd60b1461033d5761019c565b806301ffc9a7146101a157806306fdde03146101de578063081812fc14610209578063095ea7b31461024657806311dd88451461026f57806323b872dd146102ac575b600080fd5b3480156101ad57600080fd5b506101c860048036038101906101c39190613183565b6106e5565b6040516101d591906131cb565b60405180910390f35b3480156101ea57600080fd5b506101f36107c7565b604051610200919061327f565b60405180910390f35b34801561021557600080fd5b50610230600480360381019061022b91906132d7565b610859565b60405161023d9190613345565b60405180910390f35b34801561025257600080fd5b5061026d6004803603810190610268919061338c565b6108de565b005b34801561027b57600080fd5b5061029660048036038101906102919190613431565b6109f6565b6040516102a3919061327f565b60405180910390f35b3480156102b857600080fd5b506102d360048036038101906102ce919061347e565b610aa9565b005b3480156102e157600080fd5b506102fc60048036038101906102f79190613601565b610b09565b6040516103099190613345565b60405180910390f35b34801561031e57600080fd5b50610327610b52565b604051610334919061327f565b60405180910390f35b34801561034957600080fd5b50610352610be0565b005b34801561036057600080fd5b5061037b6004803603810190610376919061347e565b610ca6565b005b34801561038957600080fd5b506103a4600480360381019061039f91906132d7565b610cc6565b6040516103b1919061327f565b60405180910390f35b3480156103c657600080fd5b506103e160048036038101906103dc9190613601565b610d66565b6040516103ee919061327f565b60405180910390f35b34801561040357600080fd5b5061041e600480360381019061041991906132d7565b610e1c565b60405161042b9190613345565b60405180910390f35b34801561044057600080fd5b5061045b6004803603810190610456919061364a565b610ece565b6040516104689190613686565b60405180910390f35b34801561047d57600080fd5b50610486610f86565b60405161049391906136c2565b60405180910390f35b3480156104a857600080fd5b506104b1610fac565b6040516104be91906131cb565b60405180910390f35b3480156104d357600080fd5b506104dc611004565b6040516104e9919061327f565b60405180910390f35b3480156104fe57600080fd5b5061051960048036038101906105149190613431565b611096565b60405161052691906131cb565b60405180910390f35b34801561053b57600080fd5b5061055660048036038101906105519190613709565b61114a565b005b34801561056457600080fd5b5061057f600480360381019061057a91906137ea565b611160565b005b34801561058d57600080fd5b506105a860048036038101906105a39190613431565b6111c2565b6040516105b59190613345565b60405180910390f35b3480156105ca57600080fd5b506105e560048036038101906105e0919061386d565b61120d565b005b3480156105f357600080fd5b5061060e600480360381019061060991906132d7565b6112e8565b60405161061b919061327f565b60405180910390f35b34801561063057600080fd5b5061064b600480360381019061064691906138ee565b61143a565b60405161065891906131cb565b60405180910390f35b61067b60048036038101906106769190613431565b6114ce565b005b34801561068957600080fd5b50610692611a37565b60405161069f9190613a3a565b60405180910390f35b3480156106b457600080fd5b506106cf60048036038101906106ca9190613431565b611bf8565b6040516106dc9190613686565b60405180910390f35b60007f80ac58cd000000000000000000000000000000000000000000000000000000007bffffffffffffffffffffffffffffffffffffffffffffffffffffffff1916827bffffffffffffffffffffffffffffffffffffffffffffffffffffffff191614806107b057507f5b5e139f000000000000000000000000000000000000000000000000000000007bffffffffffffffffffffffffffffffffffffffffffffffffffffffff1916827bffffffffffffffffffffffffffffffffffffffffffffffffffffffff1916145b806107c057506107bf82611d3a565b5b9050919050565b6060600080546107d690613a8b565b80601f016020809104026020016040519081016040528092919081815260200182805461080290613a8b565b801561084f5780601f106108245761010080835404028352916020019161084f565b820191906000526020600020905b81548152906001019060200180831161083257829003601f168201915b5050505050905090565b600061086482611da4565b6108a3576040517f08c379a000000000000000000000000000000000000000000000000000000000815260040161089a90613b2f565b60405180910390fd5b6004600083815260200190815260200160002060009054906101000a900473ffffffffffffffffffffffffffffffffffffffff169050919050565b60006108e982610e1c565b90508073ffffffffffffffffffffffffffffffffffffffff168373ffffffffffffffffffffffffffffffffffffffff16141561095a576040517f08c379a000000000000000000000000000000000000000000000000000000000815260040161095190613bc1565b60405180910390fd5b8073ffffffffffffffffffffffffffffffffffffffff16610979611e10565b73ffffffffffffffffffffffffffffffffffffffff1614806109a857506109a7816109a2611e10565b61143a565b5b6109e7576040517f08c379a00000000000000000000000000000000000000000000000000000000081526004016109de90613c53565b60405180910390fd5b6109f18383611e18565b505050565b6060600c8383604051610a0a929190613ca3565b90815260200160405180910390208054610a2390613a8b565b80601f0160208091040260200160405190810160405280929190818152602001828054610a4f90613a8b565b8015610a9c5780601f10610a7157610100808354040283529160200191610a9c565b820191906000526020600020905b815481529060010190602001808311610a7f57829003601f168201915b5050505050905092915050565b610aba610ab4611e10565b82611ed1565b610af9576040517f08c379a0000000000000000000000000000000000000000000000000000000008152600401610af090613d2e565b60405180910390fd5b610b04838383611faf565b505050565b600b818051602081018201805184825260208301602085012081835280955050505050506000915054906101000a900473ffffffffffffffffffffffffffffffffffffffff1681565b60088054610b5f90613a8b565b80601f0160208091040260200160405190810160405280929190818152602001828054610b8b90613a8b565b8015610bd85780601f10610bad57610100808354040283529160200191610bd8565b820191906000526020600020905b815481529060010190602001808311610bbb57829003601f168201915b505050505081565b610be8610fac565b610bf157600080fd5b600047905060003373ffffffffffffffffffffffffffffffffffffffff1682604051610c1c90613d7f565b60006040518083038185875af1925050503d8060008114610c59576040519150601f19603f3d011682016040523d82523d6000602084013e610c5e565b606091505b5050905080610ca2576040517f08c379a0000000000000000000000000000000000000000000000000000000008152600401610c9990613de0565b60405180910390fd5b5050565b610cc183838360405180602001604052806000815250611160565b505050565b600d6020528060005260406000206000915090508054610ce590613a8b565b80601f0160208091040260200160405190810160405280929190818152602001828054610d1190613a8b565b8015610d5e5780601f10610d3357610100808354040283529160200191610d5e565b820191906000526020600020905b815481529060010190602001808311610d4157829003601f168201915b505050505081565b600c818051602081018201805184825260208301602085012081835280955050505050506000915090508054610d9b90613a8b565b80601f0160208091040260200160405190810160405280929190818152602001828054610dc790613a8b565b8015610e145780601f10610de957610100808354040283529160200191610e14565b820191906000526020600020905b815481529060010190602001808311610df757829003601f168201915b505050505081565b6000806002600084815260200190815260200160002060009054906101000a900473ffffffffffffffffffffffffffffffffffffffff169050600073ffffffffffffffffffffffffffffffffffffffff168173ffffffffffffffffffffffffffffffffffffffff161415610ec5576040517f08c379a0000000000000000000000000000000000000000000000000000000008152600401610ebc90613e72565b60405180910390fd5b80915050919050565b60008073ffffffffffffffffffffffffffffffffffffffff168273ffffffffffffffffffffffffffffffffffffffff161415610f3f576040517f08c379a0000000000000000000000000000000000000000000000000000000008152600401610f3690613f04565b60405180910390fd5b600360008373ffffffffffffffffffffffffffffffffffffffff1673ffffffffffffffffffffffffffffffffffffffff168152602001908152602001600020549050919050565b600e60009054906101000a900473ffffffffffffffffffffffffffffffffffffffff1681565b6000600e60009054906101000a900473ffffffffffffffffffffffffffffffffffffffff1673ffffffffffffffffffffffffffffffffffffffff163373ffffffffffffffffffffffffffffffffffffffff1614905090565b60606001805461101390613a8b565b80601f016020809104026020016040519081016040528092919081815260200182805461103f90613a8b565b801561108c5780601f106110615761010080835404028352916020019161108c565b820191906000526020600020905b81548152906001019060200180831161106f57829003601f168201915b5050505050905090565b600060036110e784848080601f016020809104026020016040519081016040528093929190818152602001838380828437600081840152601f19601f82011690508083019250505050505050612216565b101580156111425750600a61113f84848080601f016020809104026020016040519081016040528093929190818152602001838380828437600081840152601f19601f82011690508083019250505050505050612216565b11155b905092915050565b61115c611155611e10565b83836123cb565b5050565b61117161116b611e10565b83611ed1565b6111b0576040517f08c379a00000000000000000000000000000000000000000000000000000000081526004016111a790613d2e565b60405180910390fd5b6111bc84848484612538565b50505050565b6000600b83836040516111d6929190613ca3565b908152602001604051809103902060009054906101000a900473ffffffffffffffffffffffffffffffffffffffff16905092915050565b600b848460405161121f929190613ca3565b908152602001604051809103902060009054906101000a900473ffffffffffffffffffffffffffffffffffffffff1673ffffffffffffffffffffffffffffffffffffffff163373ffffffffffffffffffffffffffffffffffffffff16146112b2576040517f82b4290000000000000000000000000000000000000000000000000000000000815260040160405180910390fd5b8181600c86866040516112c6929190613ca3565b908152602001604051809103902091906112e1929190612fee565b5050505050565b60606112f382611da4565b611332576040517f08c379a000000000000000000000000000000000000000000000000000000000815260040161132990613f96565b60405180910390fd5b600060066000848152602001908152602001600020805461135290613a8b565b80601f016020809104026020016040519081016040528092919081815260200182805461137e90613a8b565b80156113cb5780601f106113a0576101008083540402835291602001916113cb565b820191906000526020600020905b8154815290600101906020018083116113ae57829003601f168201915b5050505050905060006113dc612594565b90506000815114156113f2578192505050611435565b60008251111561142757808260405160200161140f929190613fe7565b60405160208183030381529060405292505050611435565b611430846125ab565b925050505b919050565b6000600560008473ffffffffffffffffffffffffffffffffffffffff1673ffffffffffffffffffffffffffffffffffffffff16815260200190815260200160002060008373ffffffffffffffffffffffffffffffffffffffff1673ffffffffffffffffffffffffffffffffffffffff16815260200190815260200160002060009054906101000a900460ff16905092915050565b600073ffffffffffffffffffffffffffffffffffffffff16600b83836040516114f8929190613ca3565b908152602001604051809103902060009054906101000a900473ffffffffffffffffffffffffffffffffffffffff1673ffffffffffffffffffffffffffffffffffffffff1614611574576040517f3a81d6fc00000000000000000000000000000000000000000000000000000000815260040160405180910390fd5b61157e8282611096565b6115c15781816040517f7f19f48d0000000000000000000000000000000000000000000000000000000081526004016115b8929190614038565b60405180910390fd5b600073ffffffffffffffffffffffffffffffffffffffff16600b83836040516115eb929190613ca3565b908152602001604051809103902060009054906101000a900473ffffffffffffffffffffffffffffffffffffffff1673ffffffffffffffffffffffffffffffffffffffff161461163a57600080fd5b60003073ffffffffffffffffffffffffffffffffffffffff1663fe2c619884846040518363ffffffff1660e01b8152600401611677929190614038565b602060405180830381865afa158015611694573d6000803e3d6000fd5b505050506040513d601f19601f820116820180604052508101906116b89190614071565b9050803410156116fd576040517f08c379a00000000000000000000000000000000000000000000000000000000081526004016116f4906140ea565b60405180910390fd5b600083836008604051602001611715939291906141ea565b60405160208183030381529060405290506000600982600a60405160200161173f9392919061421b565b6040516020818303038152906040529050600061175c6007612652565b905060006117ad87878080601f016020809104026020016040519081016040528093929190818152602001838380828437600081840152601f19601f82011690508083019250505050505050612216565b905060006117ba82612660565b90506118ae604051806060016040528060318152602001614d796031913989898080601f016020809104026020016040519081016040528093929190818152602001838380828437600081840152601f19601f820116905080830192505050505050506008805461182a90613a8b565b80601f016020809104026020016040519081016040528092919081815260200182805461185690613a8b565b80156118a35780601f10611878576101008083540402835291602001916118a3565b820191906000526020600020905b81548152906001019060200180831161188657829003601f168201915b5050505050866127c1565b60006118e4866118bd87612863565b846040516020016118d0939291906143c8565b604051602081830303815290604052612863565b90506000816040516020016118f99190614471565b604051602081830303815290604052905061192b604051806060016040528060398152602001614d40603991396129fb565b61196a6040518060400160405280600e81526020017f46696e616c20746f6b656e55524900000000000000000000000000000000000081525082611c9e565b61198b604051806060016040528060398152602001614daa603991396129fb565b6119953386612a94565b61199f8582612ab2565b33600b8b8b6040516119b2929190613ca3565b908152602001604051809103902060006101000a81548173ffffffffffffffffffffffffffffffffffffffff021916908373ffffffffffffffffffffffffffffffffffffffff1602179055508989600d60008881526020019081526020016000209190611a20929190612fee565b50611a2b6007612b26565b50505050505050505050565b6060611a5a604051806060016040528060278152602001614d19602791396129fb565b6000611a666007612652565b67ffffffffffffffff811115611a7f57611a7e6134d6565b5b604051908082528060200260200182016040528015611ab257816020015b6060815260200190600190039081611a9d5790505b50905060005b611ac26007612652565b811015611bf057600d60008281526020019081526020016000208054611ae790613a8b565b80601f0160208091040260200160405190810160405280929190818152602001828054611b1390613a8b565b8015611b605780601f10611b3557610100808354040283529160200191611b60565b820191906000526020600020905b815481529060010190602001808311611b4357829003601f168201915b5050505050828281518110611b7857611b77614493565b5b6020026020010181905250611bdd6040518060400160405280601781526020017f4e616d6520666f7220746f6b656e20256420697320257300000000000000000081525082848481518110611bd057611bcf614493565b5b6020026020010151612b3c565b8080611be8906144f1565b915050611ab8565b508091505090565b600080611c4884848080601f016020809104026020016040519081016040528093929190818152602001838380828437600081840152601f19601f82011690508083019250505050505050612216565b905060008111611c5757600080fd5b6003811415611c71576706f05b59d3b20000915050611c98565b6004811415611c8b57670429d069189e0000915050611c98565b67016345785d8a00009150505b92915050565b611d368282604051602401611cb492919061453a565b6040516020818303038152906040527f4b5c4277000000000000000000000000000000000000000000000000000000007bffffffffffffffffffffffffffffffffffffffffffffffffffffffff19166020820180517bffffffffffffffffffffffffffffffffffffffffffffffffffffffff8381831617835250505050612bdb565b5050565b60007f01ffc9a7000000000000000000000000000000000000000000000000000000007bffffffffffffffffffffffffffffffffffffffffffffffffffffffff1916827bffffffffffffffffffffffffffffffffffffffffffffffffffffffff1916149050919050565b60008073ffffffffffffffffffffffffffffffffffffffff166002600084815260200190815260200160002060009054906101000a900473ffffffffffffffffffffffffffffffffffffffff1673ffffffffffffffffffffffffffffffffffffffff1614159050919050565b600033905090565b816004600083815260200190815260200160002060006101000a81548173ffffffffffffffffffffffffffffffffffffffff021916908373ffffffffffffffffffffffffffffffffffffffff160217905550808273ffffffffffffffffffffffffffffffffffffffff16611e8b83610e1c565b73ffffffffffffffffffffffffffffffffffffffff167f8c5be1e5ebec7d5bd14f71427d1e84f3dd0314c0f7b2291e5b200ac8c7c3b92560405160405180910390a45050565b6000611edc82611da4565b611f1b576040517f08c379a0000000000000000000000000000000000000000000000000000000008152600401611f12906145e3565b60405180910390fd5b6000611f2683610e1c565b90508073ffffffffffffffffffffffffffffffffffffffff168473ffffffffffffffffffffffffffffffffffffffff161480611f9557508373ffffffffffffffffffffffffffffffffffffffff16611f7d84610859565b73ffffffffffffffffffffffffffffffffffffffff16145b80611fa65750611fa5818561143a565b5b91505092915050565b8273ffffffffffffffffffffffffffffffffffffffff16611fcf82610e1c565b73ffffffffffffffffffffffffffffffffffffffff1614612025576040517f08c379a000000000000000000000000000000000000000000000000000000000815260040161201c90614675565b60405180910390fd5b600073ffffffffffffffffffffffffffffffffffffffff168273ffffffffffffffffffffffffffffffffffffffff161415612095576040517f08c379a000000000000000000000000000000000000000000000000000000000815260040161208c90614707565b60405180910390fd5b6120a0838383612c04565b6120ab600082611e18565b6001600360008573ffffffffffffffffffffffffffffffffffffffff1673ffffffffffffffffffffffffffffffffffffffff16815260200190815260200160002060008282546120fb9190614727565b925050819055506001600360008473ffffffffffffffffffffffffffffffffffffffff1673ffffffffffffffffffffffffffffffffffffffff1681526020019081526020016000206000828254612152919061475b565b92505081905550816002600083815260200190815260200160002060006101000a81548173ffffffffffffffffffffffffffffffffffffffff021916908373ffffffffffffffffffffffffffffffffffffffff160217905550808273ffffffffffffffffffffffffffffffffffffffff168473ffffffffffffffffffffffffffffffffffffffff167fddf252ad1be2c89b69c2b068fc378daa952ba7f163c4a11628f55a4df523b3ef60405160405180910390a4612211838383612c09565b505050565b60008060008084519050600092505b808210156123c057600085838151811061224257612241614493565b5b602001015160f81c60f81b9050608060f81b817effffffffffffffffffffffffffffffffffffffffffffffffffffffffffffff191610156122915760018361228a919061475b565b92506123ac565b60e060f81b817effffffffffffffffffffffffffffffffffffffffffffffffffffffffffffff191610156122d3576002836122cc919061475b565b92506123ab565b60f060f81b817effffffffffffffffffffffffffffffffffffffffffffffffffffffffffffff191610156123155760038361230e919061475b565b92506123aa565b60f8801b817effffffffffffffffffffffffffffffffffffffffffffffffffffffffffffff191610156123565760048361234f919061475b565b92506123a9565b60fc60f81b817effffffffffffffffffffffffffffffffffffffffffffffffffffffffffffff1916101561239857600583612391919061475b565b92506123a8565b6006836123a5919061475b565b92505b5b5b5b5b5082806123b8906144f1565b935050612225565b829350505050919050565b8173ffffffffffffffffffffffffffffffffffffffff168373ffffffffffffffffffffffffffffffffffffffff16141561243a576040517f08c379a0000000000000000000000000000000000000000000000000000000008152600401612431906147fd565b60405180910390fd5b80600560008573ffffffffffffffffffffffffffffffffffffffff1673ffffffffffffffffffffffffffffffffffffffff16815260200190815260200160002060008473ffffffffffffffffffffffffffffffffffffffff1673ffffffffffffffffffffffffffffffffffffffff16815260200190815260200160002060006101000a81548160ff0219169083151502179055508173ffffffffffffffffffffffffffffffffffffffff168373ffffffffffffffffffffffffffffffffffffffff167f17307eab39ab6107e8899845ad3d59bd9653f200f220920489ca2b5937696c318360405161252b91906131cb565b60405180910390a3505050565b612543848484611faf565b61254f84848484612c0e565b61258e576040517f08c379a00000000000000000000000000000000000000000000000000000000081526004016125859061488f565b60405180910390fd5b50505050565b606060405180602001604052806000815250905090565b60606125b682611da4565b6125f5576040517f08c379a00000000000000000000000000000000000000000000000000000000081526004016125ec90614921565b60405180910390fd5b60006125ff612594565b9050600081511161261f576040518060200160405280600081525061264a565b8061262984612660565b60405160200161263a929190613fe7565b6040516020818303038152906040525b915050919050565b600081600001549050919050565b606060008214156126a8576040518060400160405280600181526020017f300000000000000000000000000000000000000000000000000000000000000081525090506127bc565b600082905060005b600082146126da5780806126c3906144f1565b915050600a826126d39190614970565b91506126b0565b60008167ffffffffffffffff8111156126f6576126f56134d6565b5b6040519080825280601f01601f1916602001820160405280156127285781602001600182028036833780820191505090505b5090505b600085146127b5576001826127419190614727565b9150600a8561275091906149a1565b603061275c919061475b565b60f81b81838151811061277257612771614493565b5b60200101907effffffffffffffffffffffffffffffffffffffffffffffffffffffffffffff1916908160001a905350600a856127ae9190614970565b945061272c565b8093505050505b919050565b61285d848484846040516024016127db94939291906149d2565b6040516020818303038152906040527f9fd009f5000000000000000000000000000000000000000000000000000000007bffffffffffffffffffffffffffffffffffffffffffffffffffffffff19166020820180517bffffffffffffffffffffffffffffffffffffffffffffffffffffffff8381831617835250505050612bdb565b50505050565b6060600082519050600081141561288c57604051806020016040528060008152509150506129f6565b6000600360028361289d919061475b565b6128a79190614970565b60046128b39190614a2c565b905060006020826128c4919061475b565b67ffffffffffffffff8111156128dd576128dc6134d6565b5b6040519080825280601f01601f19166020018201604052801561290f5781602001600182028036833780820191505090505b5090506000604051806060016040528060408152602001614de3604091399050600181016020830160005b868110156129b35760038101905062ffffff818a015116603f8160121c168401518060081b905060ff603f83600c1c1686015116810190508060081b905060ff603f8360061c1686015116810190508060081b905060ff603f831686015116810190508060e01b9050808452600484019350505061293a565b5060038606600181146129cd57600281146129dd576129e8565b613d3d60f01b60028303526129e8565b603d60f81b60018303525b508484525050819450505050505b919050565b612a9181604051602401612a0f919061327f565b6040516020818303038152906040527f41304fac000000000000000000000000000000000000000000000000000000007bffffffffffffffffffffffffffffffffffffffffffffffffffffffff19166020820180517bffffffffffffffffffffffffffffffffffffffffffffffffffffffff8381831617835250505050612bdb565b50565b612aae828260405180602001604052806000815250612d96565b5050565b612abb82611da4565b612afa576040517f08c379a0000000000000000000000000000000000000000000000000000000008152600401612af190614af8565b60405180910390fd5b80600660008481526020019081526020016000209080519060200190612b21929190613074565b505050565b6001816000016000828254019250508190555050565b612bd6838383604051602401612b5493929190614b18565b6040516020818303038152906040527fa3f5c739000000000000000000000000000000000000000000000000000000007bffffffffffffffffffffffffffffffffffffffffffffffffffffffff19166020820180517bffffffffffffffffffffffffffffffffffffffffffffffffffffffff8381831617835250505050612bdb565b505050565b60008151905060006a636f6e736f6c652e6c6f679050602083016000808483855afa5050505050565b505050565b505050565b6000612c2f8473ffffffffffffffffffffffffffffffffffffffff16612df1565b15612d89578373ffffffffffffffffffffffffffffffffffffffff1663150b7a02612c58611e10565b8786866040518563ffffffff1660e01b8152600401612c7a9493929190614bb2565b6020604051808303816000875af1925050508015612cb657506040513d601f19601f82011682018060405250810190612cb39190614c13565b60015b612d39573d8060008114612ce6576040519150601f19603f3d011682016040523d82523d6000602084013e612ceb565b606091505b50600081511415612d31576040517f08c379a0000000000000000000000000000000000000000000000000000000008152600401612d289061488f565b60405180910390fd5b805181602001fd5b63150b7a0260e01b7bffffffffffffffffffffffffffffffffffffffffffffffffffffffff1916817bffffffffffffffffffffffffffffffffffffffffffffffffffffffff191614915050612d8e565b600190505b949350505050565b612da08383612e14565b612dad6000848484612c0e565b612dec576040517f08c379a0000000000000000000000000000000000000000000000000000000008152600401612de39061488f565b60405180910390fd5b505050565b6000808273ffffffffffffffffffffffffffffffffffffffff163b119050919050565b600073ffffffffffffffffffffffffffffffffffffffff168273ffffffffffffffffffffffffffffffffffffffff161415612e84576040517f08c379a0000000000000000000000000000000000000000000000000000000008152600401612e7b90614c8c565b60405180910390fd5b612e8d81611da4565b15612ecd576040517f08c379a0000000000000000000000000000000000000000000000000000000008152600401612ec490614cf8565b60405180910390fd5b612ed960008383612c04565b6001600360008473ffffffffffffffffffffffffffffffffffffffff1673ffffffffffffffffffffffffffffffffffffffff1681526020019081526020016000206000828254612f29919061475b565b92505081905550816002600083815260200190815260200160002060006101000a81548173ffffffffffffffffffffffffffffffffffffffff021916908373ffffffffffffffffffffffffffffffffffffffff160217905550808273ffffffffffffffffffffffffffffffffffffffff16600073ffffffffffffffffffffffffffffffffffffffff167fddf252ad1be2c89b69c2b068fc378daa952ba7f163c4a11628f55a4df523b3ef60405160405180910390a4612fea60008383612c09565b5050565b828054612ffa90613a8b565b90600052602060002090601f01602090048101928261301c5760008555613063565b82601f1061303557803560ff1916838001178555613063565b82800160010185558215613063579182015b82811115613062578235825591602001919060010190613047565b5b50905061307091906130fa565b5090565b82805461308090613a8b565b90600052602060002090601f0160209004810192826130a257600085556130e9565b82601f106130bb57805160ff19168380011785556130e9565b828001600101855582156130e9579182015b828111156130e85782518255916020019190600101906130cd565b5b5090506130f691906130fa565b5090565b5b808211156131135760008160009055506001016130fb565b5090565b6000604051905090565b600080fd5b600080fd5b60007fffffffff0000000000000000000000000000000000000000000000000000000082169050919050565b6131608161312b565b811461316b57600080fd5b50565b60008135905061317d81613157565b92915050565b60006020828403121561319957613198613121565b5b60006131a78482850161316e565b91505092915050565b60008115159050919050565b6131c5816131b0565b82525050565b60006020820190506131e060008301846131bc565b92915050565b600081519050919050565b600082825260208201905092915050565b60005b83811015613220578082015181840152602081019050613205565b8381111561322f576000848401525b50505050565b6000601f19601f8301169050919050565b6000613251826131e6565b61325b81856131f1565b935061326b818560208601613202565b61327481613235565b840191505092915050565b600060208201905081810360008301526132998184613246565b905092915050565b6000819050919050565b6132b4816132a1565b81146132bf57600080fd5b50565b6000813590506132d1816132ab565b92915050565b6000602082840312156132ed576132ec613121565b5b60006132fb848285016132c2565b91505092915050565b600073ffffffffffffffffffffffffffffffffffffffff82169050919050565b600061332f82613304565b9050919050565b61333f81613324565b82525050565b600060208201905061335a6000830184613336565b92915050565b61336981613324565b811461337457600080fd5b50565b60008135905061338681613360565b92915050565b600080604083850312156133a3576133a2613121565b5b60006133b185828601613377565b92505060206133c2858286016132c2565b9150509250929050565b600080fd5b600080fd5b600080fd5b60008083601f8401126133f1576133f06133cc565b5b8235905067ffffffffffffffff81111561340e5761340d6133d1565b5b60208301915083600182028301111561342a576134296133d6565b5b9250929050565b6000806020838503121561344857613447613121565b5b600083013567ffffffffffffffff81111561346657613465613126565b5b613472858286016133db565b92509250509250929050565b60008060006060848603121561349757613496613121565b5b60006134a586828701613377565b93505060206134b686828701613377565b92505060406134c7868287016132c2565b9150509250925092565b600080fd5b7f4e487b7100000000000000000000000000000000000000000000000000000000600052604160045260246000fd5b61350e82613235565b810181811067ffffffffffffffff8211171561352d5761352c6134d6565b5b80604052505050565b6000613540613117565b905061354c8282613505565b919050565b600067ffffffffffffffff82111561356c5761356b6134d6565b5b61357582613235565b9050602081019050919050565b82818337600083830152505050565b60006135a461359f84613551565b613536565b9050828152602081018484840111156135c0576135bf6134d1565b5b6135cb848285613582565b509392505050565b600082601f8301126135e8576135e76133cc565b5b81356135f8848260208601613591565b91505092915050565b60006020828403121561361757613616613121565b5b600082013567ffffffffffffffff81111561363557613634613126565b5b613641848285016135d3565b91505092915050565b6000602082840312156136605761365f613121565b5b600061366e84828501613377565b91505092915050565b613680816132a1565b82525050565b600060208201905061369b6000830184613677565b92915050565b60006136ac82613304565b9050919050565b6136bc816136a1565b82525050565b60006020820190506136d760008301846136b3565b92915050565b6136e6816131b0565b81146136f157600080fd5b50565b600081359050613703816136dd565b92915050565b600080604083850312156137205761371f613121565b5b600061372e85828601613377565b925050602061373f858286016136f4565b9150509250929050565b600067ffffffffffffffff821115613764576137636134d6565b5b61376d82613235565b9050602081019050919050565b600061378d61378884613749565b613536565b9050828152602081018484840111156137a9576137a86134d1565b5b6137b4848285613582565b509392505050565b600082601f8301126137d1576137d06133cc565b5b81356137e184826020860161377a565b91505092915050565b6000806000806080858703121561380457613803613121565b5b600061381287828801613377565b945050602061382387828801613377565b9350506040613834878288016132c2565b925050606085013567ffffffffffffffff81111561385557613854613126565b5b613861878288016137bc565b91505092959194509250565b6000806000806040858703121561388757613886613121565b5b600085013567ffffffffffffffff8111156138a5576138a4613126565b5b6138b1878288016133db565b9450945050602085013567ffffffffffffffff8111156138d4576138d3613126565b5b6138e0878288016133db565b925092505092959194509250565b6000806040838503121561390557613904613121565b5b600061391385828601613377565b925050602061392485828601613377565b9150509250929050565b600081519050919050565b600082825260208201905092915050565b6000819050602082019050919050565b600082825260208201905092915050565b6000613976826131e6565b613980818561395a565b9350613990818560208601613202565b61399981613235565b840191505092915050565b60006139b0838361396b565b905092915050565b6000602082019050919050565b60006139d08261392e565b6139da8185613939565b9350836020820285016139ec8561394a565b8060005b85811015613a285784840389528151613a0985826139a4565b9450613a14836139b8565b925060208a019950506001810190506139f0565b50829750879550505050505092915050565b60006020820190508181036000830152613a5481846139c5565b905092915050565b7f4e487b7100000000000000000000000000000000000000000000000000000000600052602260045260246000fd5b60006002820490506001821680613aa357607f821691505b60208210811415613ab757613ab6613a5c565b5b50919050565b7f4552433732313a20617070726f76656420717565727920666f72206e6f6e657860008201527f697374656e7420746f6b656e0000000000000000000000000000000000000000602082015250565b6000613b19602c836131f1565b9150613b2482613abd565b604082019050919050565b60006020820190508181036000830152613b4881613b0c565b9050919050565b7f4552433732313a20617070726f76616c20746f2063757272656e74206f776e6560008201527f7200000000000000000000000000000000000000000000000000000000000000602082015250565b6000613bab6021836131f1565b9150613bb682613b4f565b604082019050919050565b60006020820190508181036000830152613bda81613b9e565b9050919050565b7f4552433732313a20617070726f76652063616c6c6572206973206e6f74206f7760008201527f6e6572206e6f7220617070726f76656420666f7220616c6c0000000000000000602082015250565b6000613c3d6038836131f1565b9150613c4882613be1565b604082019050919050565b60006020820190508181036000830152613c6c81613c30565b9050919050565b600081905092915050565b6000613c8a8385613c73565b9350613c97838584613582565b82840190509392505050565b6000613cb0828486613c7e565b91508190509392505050565b7f4552433732313a207472616e736665722063616c6c6572206973206e6f74206f60008201527f776e6572206e6f7220617070726f766564000000000000000000000000000000602082015250565b6000613d186031836131f1565b9150613d2382613cbc565b604082019050919050565b60006020820190508181036000830152613d4781613d0b565b9050919050565b600081905092915050565b50565b6000613d69600083613d4e565b9150613d7482613d59565b600082019050919050565b6000613d8a82613d5c565b9150819050919050565b7f4661696c656420746f207769746864726177204d617469630000000000000000600082015250565b6000613dca6018836131f1565b9150613dd582613d94565b602082019050919050565b60006020820190508181036000830152613df981613dbd565b9050919050565b7f4552433732313a206f776e657220717565727920666f72206e6f6e657869737460008201527f656e7420746f6b656e0000000000000000000000000000000000000000000000602082015250565b6000613e5c6029836131f1565b9150613e6782613e00565b604082019050919050565b60006020820190508181036000830152613e8b81613e4f565b9050919050565b7f4552433732313a2062616c616e636520717565727920666f7220746865207a6560008201527f726f206164647265737300000000000000000000000000000000000000000000602082015250565b6000613eee602a836131f1565b9150613ef982613e92565b604082019050919050565b60006020820190508181036000830152613f1d81613ee1565b9050919050565b7f45524337323155524953746f726167653a2055524920717565727920666f722060008201527f6e6f6e6578697374656e7420746f6b656e000000000000000000000000000000602082015250565b6000613f806031836131f1565b9150613f8b82613f24565b604082019050919050565b60006020820190508181036000830152613faf81613f73565b9050919050565b6000613fc1826131e6565b613fcb8185613c73565b9350613fdb818560208601613202565b80840191505092915050565b6000613ff38285613fb6565b9150613fff8284613fb6565b91508190509392505050565b600061401783856131f1565b9350614024838584613582565b61402d83613235565b840190509392505050565b6000602082019050818103600083015261405381848661400b565b90509392505050565b60008151905061406b816132ab565b92915050565b60006020828403121561408757614086613121565b5b60006140958482850161405c565b91505092915050565b7f4e6f7420656e6f756768204d6174696320706169640000000000000000000000600082015250565b60006140d46015836131f1565b91506140df8261409e565b602082019050919050565b60006020820190508181036000830152614103816140c7565b9050919050565b7f2e00000000000000000000000000000000000000000000000000000000000000600082015250565b6000614140600183613c73565b915061414b8261410a565b600182019050919050565b60008190508160005260206000209050919050565b6000815461417881613a8b565b6141828186613c73565b9450600182166000811461419d57600181146141ae576141e1565b60ff198316865281860193506141e1565b6141b785614156565b60005b838110156141d9578154818901526001820191506020810190506141ba565b838801955050505b50505092915050565b60006141f7828587613c7e565b915061420282614133565b915061420e828461416b565b9150819050949350505050565b6000614227828661416b565b91506142338285613fb6565b915061423f828461416b565b9150819050949350505050565b7f7b226e616d65223a202200000000000000000000000000000000000000000000600082015250565b6000614282600a83613c73565b915061428d8261424c565b600a82019050919050565b7f222c20226465736372697074696f6e223a20224120646f6d61696e206f6e207460008201527f686520466f726365206e616d652073657276696365222c2022696d616765223a60208201527f2022646174613a696d6167652f7376672b786d6c3b6261736536342c00000000604082015250565b600061431a605c83613c73565b915061432582614298565b605c82019050919050565b7f222c226c656e677468223a220000000000000000000000000000000000000000600082015250565b6000614366600c83613c73565b915061437182614330565b600c82019050919050565b7f227d000000000000000000000000000000000000000000000000000000000000600082015250565b60006143b2600283613c73565b91506143bd8261437c565b600282019050919050565b60006143d382614275565b91506143df8286613fb6565b91506143ea8261430d565b91506143f68285613fb6565b915061440182614359565b915061440d8284613fb6565b9150614418826143a5565b9150819050949350505050565b7f646174613a6170706c69636174696f6e2f6a736f6e3b6261736536342c000000600082015250565b600061445b601d83613c73565b915061446682614425565b601d82019050919050565b600061447c8261444e565b91506144888284613fb6565b915081905092915050565b7f4e487b7100000000000000000000000000000000000000000000000000000000600052603260045260246000fd5b7f4e487b7100000000000000000000000000000000000000000000000000000000600052601160045260246000fd5b60006144fc826132a1565b91507fffffffffffffffffffffffffffffffffffffffffffffffffffffffffffffffff82141561452f5761452e6144c2565b5b600182019050919050565b600060408201905081810360008301526145548185613246565b905081810360208301526145688184613246565b90509392505050565b7f4552433732313a206f70657261746f7220717565727920666f72206e6f6e657860008201527f697374656e7420746f6b656e0000000000000000000000000000000000000000602082015250565b60006145cd602c836131f1565b91506145d882614571565b604082019050919050565b600060208201905081810360008301526145fc816145c0565b9050919050565b7f4552433732313a207472616e736665722066726f6d20696e636f72726563742060008201527f6f776e6572000000000000000000000000000000000000000000000000000000602082015250565b600061465f6025836131f1565b915061466a82614603565b604082019050919050565b6000602082019050818103600083015261468e81614652565b9050919050565b7f4552433732313a207472616e7366657220746f20746865207a65726f2061646460008201527f7265737300000000000000000000000000000000000000000000000000000000602082015250565b60006146f16024836131f1565b91506146fc82614695565b604082019050919050565b60006020820190508181036000830152614720816146e4565b9050919050565b6000614732826132a1565b915061473d836132a1565b9250828210156147505761474f6144c2565b5b828203905092915050565b6000614766826132a1565b9150614771836132a1565b9250827fffffffffffffffffffffffffffffffffffffffffffffffffffffffffffffffff038211156147a6576147a56144c2565b5b828201905092915050565b7f4552433732313a20617070726f766520746f2063616c6c657200000000000000600082015250565b60006147e76019836131f1565b91506147f2826147b1565b602082019050919050565b60006020820190508181036000830152614816816147da565b9050919050565b7f4552433732313a207472616e7366657220746f206e6f6e20455243373231526560008201527f63656976657220696d706c656d656e7465720000000000000000000000000000602082015250565b60006148796032836131f1565b91506148848261481d565b604082019050919050565b600060208201905081810360008301526148a88161486c565b9050919050565b7f4552433732314d657461646174613a2055524920717565727920666f72206e6f60008201527f6e6578697374656e7420746f6b656e0000000000000000000000000000000000602082015250565b600061490b602f836131f1565b9150614916826148af565b604082019050919050565b6000602082019050818103600083015261493a816148fe565b9050919050565b7f4e487b7100000000000000000000000000000000000000000000000000000000600052601260045260246000fd5b600061497b826132a1565b9150614986836132a1565b92508261499657614995614941565b5b828204905092915050565b60006149ac826132a1565b91506149b7836132a1565b9250826149c7576149c6614941565b5b828206905092915050565b600060808201905081810360008301526149ec8187613246565b90508181036020830152614a008186613246565b90508181036040830152614a148185613246565b9050614a236060830184613677565b95945050505050565b6000614a37826132a1565b9150614a42836132a1565b9250817fffffffffffffffffffffffffffffffffffffffffffffffffffffffffffffffff0483118215151615614a7b57614a7a6144c2565b5b828202905092915050565b7f45524337323155524953746f726167653a2055524920736574206f66206e6f6e60008201527f6578697374656e7420746f6b656e000000000000000000000000000000000000602082015250565b6000614ae2602e836131f1565b9150614aed82614a86565b604082019050919050565b60006020820190508181036000830152614b1181614ad5565b9050919050565b60006060820190508181036000830152614b328186613246565b9050614b416020830185613677565b8181036040830152614b538184613246565b9050949350505050565b600081519050919050565b600082825260208201905092915050565b6000614b8482614b5d565b614b8e8185614b68565b9350614b9e818560208601613202565b614ba781613235565b840191505092915050565b6000608082019050614bc76000830187613336565b614bd46020830186613336565b614be16040830185613677565b8181036060830152614bf38184614b79565b905095945050505050565b600081519050614c0d81613157565b92915050565b600060208284031215614c2957614c28613121565b5b6000614c3784828501614bfe565b91505092915050565b7f4552433732313a206d696e7420746f20746865207a65726f2061646472657373600082015250565b6000614c766020836131f1565b9150614c8182614c40565b602082019050919050565b60006020820190508181036000830152614ca581614c69565b9050919050565b7f4552433732313a20746f6b656e20616c7265616479206d696e74656400000000600082015250565b6000614ce2601c836131f1565b9150614ced82614cac565b602082019050919050565b60006020820190508181036000830152614d1181614cd5565b905091905056fe47657474696e6720616c6c20746865206e616d65732066726f6d2074686520636f6e74726163740a2d2d2d2d2d2d2d2d2d2d2d2d2d2d2d2d2d2d2d2d2d2d2d2d2d2d2d2d2d2d2d2d2d2d2d2d2d2d2d2d2d2d2d2d2d2d2d2d2d2d2d2d2d2d2d2d5265676973746572696e672025732e2573206f6e2074686520636f6e7472616374207769746820746f6b656e49442025642d2d2d2d2d2d2d2d2d2d2d2d2d2d2d2d2d2d2d2d2d2d2d2d2d2d2d2d2d2d2d2d2d2d2d2d2d2d2d2d2d2d2d2d2d2d2d2d2d2d2d2d2d2d2d2d0a4142434445464748494a4b4c4d4e4f505152535455565758595a6162636465666768696a6b6c6d6e6f707172737475767778797a303132333435363738392b2fa26469706673582212200a4b4f779d5783016028cbf1f50fe2fc7f068e619ac3344e34e03b57772fdca464736f6c634300080a00333c73766720786d6c6e733d22687474703a2f2f7777772e77332e6f72672f323030302f737667222077696474683d2232373022206865696768743d22323730222066696c6c3d226e6f6e65223e3c706174682066696c6c3d2275726c282342292220643d224d302030683237307632373048307a222f3e3c646566733e3c66696c7465722069643d22412220636f6c6f722d696e746572706f6c6174696f6e2d66696c746572733d2273524742222066696c746572556e6974733d227573657253706163654f6e55736522206865696768743d22323730222077696474683d22323730223e3c666544726f70536861646f772064783d2230222064793d22312220737464446576696174696f6e3d22322220666c6f6f642d6f7061636974793d222e323235222077696474683d223230302522206865696768743d2232303025222f3e3c2f66696c7465723e3c2f646566733e3c7061746820643d224d37322e3836332034322e393439632d2e3636382d2e3338372d312e3432362d2e35392d322e3139372d2e3539732d312e3532392e3230342d322e3139372e35396c2d31302e30383120362e3033322d362e383520332e3933342d31302e30383120362e303332632d2e3636382e3338372d312e3432362e35392d322e3139372e3539732d312e3532392d2e3230342d322e3139372d2e35396c2d382e3031332d342e37323161342e353220342e35322030203020312d312e3538392d312e363136632d2e3338342d2e3636352d2e3539342d312e3431382d2e3630382d322e313837762d392e3331632d2e3031332d2e3737352e3138352d312e3533382e3537322d322e32303861342e323520342e323520302030203120312e3632352d312e3539356c372e3838342d342e3539632e3636382d2e33383720312e3432362d2e353920322e3139372d2e353973312e3532392e32303420322e3139372e35396c372e38383420342e353961342e353220342e353220302030203120312e35383920312e363136632e3338342e3636352e35393420312e3431382e36303820322e31383776362e3033326c362e38352d342e303635762d362e303332632e3031332d2e3737352d2e3138352d312e3533382d2e3537322d322e32303861342e323520342e32352030203020302d312e3632352d312e3539354c34312e3435362032342e3539632d2e3636382d2e3338372d312e3432362d2e35392d322e3139372d2e3539732d312e3532392e3230342d322e3139372e35396c2d31342e38363420382e36353561342e323520342e32352030203020302d312e36323520312e353935632d2e3338372e36372d2e35383520312e3433342d2e35373220322e3230387631372e343431632d2e3031332e3737352e31383520312e3533382e35373220322e32303861342e323520342e323520302030203020312e36323520312e3539356c31342e38363420382e363535632e3636382e33383720312e3432362e353920322e3139372e353973312e3532392d2e32303420322e3139372d2e35396c31302e3038312d352e39303120362e38352d342e3036352031302e3038312d352e393031632e3636382d2e33383720312e3432362d2e353920322e3139372d2e353973312e3532392e32303420322e3139372e35396c372e38383420342e353961342e353220342e353220302030203120312e35383920312e363136632e3338342e3636352e35393420312e3431382e36303820322e31383776392e333131632e3031332e3737352d2e31383520312e3533382d2e35373220322e32303861342e323520342e32352030203020312d312e36323520312e3539356c2d372e38383420342e373231632d2e3636382e3338372d312e3432362e35392d322e3139372e3539732d312e3532392d2e3230342d322e3139372d2e35396c2d372e3838342d342e353961342e353220342e35322030203020312d312e3538392d312e363136632d2e3338352d2e3636352d2e3539342d312e3431382d2e3630382d322e313837762d362e3033326c2d362e383520342e30363576362e303332632d2e3031332e3737352e31383520312e3533382e35373220322e32303861342e323520342e323520302030203020312e36323520312e3539356c31342e38363420382e363535632e3636382e33383720312e3432362e353920322e3139372e353973312e3532392d2e32303420322e3139372d2e35396c31342e3836342d382e363535632e3635372d2e33393420312e3230342d2e393520312e3538392d312e363136732e3539342d312e3431382e3630392d322e3138375635352e353338632e3031332d2e3737352d2e3138352d312e3533382d2e3537322d322e32303861342e323520342e32352030203020302d312e3632352d312e3539356c2d31342e3939332d382e3738367a222066696c6c3d2223666666222f3e3c646566733e3c6c696e6561724772616469656e742069643d2242222078313d2230222079313d2230222078323d22323730222079323d2232373022206772616469656e74556e6974733d227573657253706163654f6e557365223e3c73746f702073746f702d636f6c6f723d2223636235656565222f3e3c73746f70206f66667365743d2231222073746f702d636f6c6f723d2223306364376534222073746f702d6f7061636974793d222e3939222f3e3c2f6c696e6561724772616469656e743e3c2f646566733e3c7465787420783d2233322e352220793d223233312220666f6e742d73697a653d223237222066696c6c3d2223666666222066696c7465723d2275726c282341292220666f6e742d66616d696c793d22506c7573204a616b617274612053616e732c44656a6156752053616e732c4e6f746f20436f6c6f7220456d6f6a692c4170706c6520436f6c6f7220456d6f6a692c73616e732d73657269662220666f6e742d7765696768743d22626f6c64223e",
  "linkReferences": {},
  "deployedLinkReferences": {}
}